:020000040000FA
:0400000004EF01F018
:060008003982AEED05F0A7
:100018003980D8CF0DF0E8CF0EF0E0CF0FF0D9CF70
:1000280010F0DACF11F0000EBE6E000E206E000E3A
:100038001F6E23042410D8A424EF00F026EF00F04C
:10004800DCEF00F031EC06F0898C290E086E000E0A
:10005800096E800E4EEC06F0620E2918D8A437EF10
:1000680000F039EF00F042EF00F0720E2A18D8B411
:1000780040EF00F042EF00F04BEF00F0650E29185A
:10008800D8A449EF00F04BEF00F04FEF00F0000E5E
:10009800206E010E1F6E6C0E2918D8A456EF00F0C2
:1000A80058EF00F062EF00F0610E2A18D8A45FEF55
:1000B80000F061EF00F062EF00F089806C0E291803
:1000C800D8A469EF00F06BEF00F075EF00F0620E56
:1000D8002A18D8A472EF00F074EF00F075EF00F062
:1000E80089826C0E2918D8A47CEF00F07EEF00F00E
:1000F80088EF00F0630E2A18D8A485EF00F087EF88
:1001080000F088EF00F089846C0E2918D8A48FEFCE
:1001180000F091EF00F09BEF00F0640E2A18D8A4CD
:1001280098EF00F09AEF00F09BEF00F08986650EDB
:100138002918D8A4A2EF00F0A4EF00F0BAEF00F05D
:100148006E0E2A18D8A4ABEF00F0ADEF00F0BAEFAE
:1001580000F0640E2B18D8A4B4EF00F0B6EF00F04E
:10016800BAEF00F08990899289948996000E136EEF
:10017800000E126E290E1224D96E000E1320DA6EAC
:10018800000EDF6E124A132A13BED4EF00F013508C
:1001980009E1100E125CD8A0D4EF00F0D6EF00F001
:1001A800BEEF00F0000E226E000E216EEBEF00F0A5
:1001B80006EC01F0000E246E010E236E000E286E70
:1001C800000E276E000E266E000E256E898CF090AC
:1001D800060E0C6E130E0B6EAE0EE82EFED70B2E0F
:1001E800FCD70C2EFAD7899C11C0DAFF10C0D9FFB2
:1001F8000FC0E0FF0EC0E8FF0DC0D8FF3990100017
:10020800CDEF06F027042810D8A40DEF01F00FEF6A
:1002180001F023EF01F0020E25182610D8A417EFDD
:1002280001F019EF01F023EF01F0290E2124D96E16
:10023800000E2220DA6E610EDF6E32EF05F0080E36
:1002480027182810D8A42BEF01F02DEF01F041EF6B
:1002580001F0040E25182610D8A435EF01F037EF69
:1002680001F041EF01F0290E2124D96E000E222061
:10027800DA6E620EDF6E32EF05F00A0E27182810CC
:10028800D8A449EF01F04BEF01F05FEF01F0040E45
:1002980025182610D8A453EF01F055EF01F05FEFB1
:1002A80001F0290E2124D96E000E2220DA6E630E89
:1002B800DF6E32EF05F0040E27182810D8A467EF78
:1002C80001F069EF01F07DEF01F0030E251826100B
:1002D800D8A471EF01F073EF01F07DEF01F0290E62
:1002E8002124D96E000E2220DA6E640EDF6E32EF02
:1002F80005F027502810D8A484EF01F086EF01F00C
:1003080099EF01F025042610D8A48DEF01F08FEFA6
:1003180001F099EF01F0290E2124D96E000E222058
:10032800DA6E650EDF6E32EF05F0020E2718281020
:10033800D8A4A1EF01F0A3EF01F0B7EF01F0040E8C
:1003480025182610D8A4ABEF01F0ADEF01F0B7EFF8
:1003580001F0290E2124D96E000E2220DA6E660ED5
:10036800DF6E32EF05F0060E27182810D8A4BFEF6D
:1003780001F0C1EF01F0D5EF01F0030E25182610AA
:10038800D8A4C9EF01F0CBEF01F0D5EF01F0290EA9
:100398002124D96E000E2220DA6E670EDF6E32EF4E
:1003A80005F027502810D8A4DCEF01F0DEEF01F0AB
:1003B800F2EF01F0040E25182610D8A4E6EF01F09C
:1003C800E8EF01F0F2EF01F0290E2124D96E000EBA
:1003D8002220DA6E680EDF6E32EF05F02750281003
:1003E800D8A4F9EF01F0FBEF01F00FEF02F0020ED5
:1003F80025182610D8A403EF02F005EF02F00FEF3E
:1004080002F0290E2124D96E000E2220DA6E690E20
:10041800DF6E32EF05F0070E27182810D8A417EF63
:1004280002F019EF02F02DEF02F0040E2518261045
:10043800D8A421EF02F023EF02F02DEF02F0290EED
:100448002124D96E000E2220DA6E6A0EDF6E32EF9A
:1004580005F0050E27182810D8A435EF02F037EF5D
:1004680002F04BEF02F0030E25182610D8A43FEF38
:1004780002F041EF02F04BEF02F0290E2124D96E71
:10048800000E2220DA6E6B0EDF6E32EF05F0040EDE
:1004980027182810D8A453EF02F055EF02F069EF9F
:1004A80002F0040E25182610D8A45DEF02F05FEFC5
:1004B80002F069EF02F0290E2124D96E000E2220E5
:1004C800DA6E6C0EDF6E32EF05F0030E2718281077
:1004D800D8A471EF02F073EF02F087EF02F0020E7A
:1004E80025182610D8A47BEF02F07DEF02F087EFE5
:1004F80002F0290E2124D96E000E2220DA6E6D0E2C
:10050800DF6E32EF05F0020E27182810D8A48FEFFF
:1005180002F091EF02F0A5EF02F0020E2518261066
:10052800D8A499EF02F09BEF02F0A5EF02F0290E94
:100538002124D96E000E2220DA6E6E0EDF6E32EFA5
:1005480005F0070E27182810D8A4ADEF02F0AFEF7A
:1005580002F0C3EF02F0030E25182610D8A4B7EF57
:1005680002F0B9EF02F0C3EF02F0290E2124D96E90
:10057800000E2220DA6E6F0EDF6E32EF05F0060EE7
:1005880027182810D8A4CBEF02F0CDEF02F0E1EF46
:1005980002F0040E25182610D8A4D5EF02F0D7EFE4
:1005A80002F0E1EF02F0290E2124D96E000E22207C
:1005B800DA6E700EDF6E32EF05F00D0E2718281078
:1005C800D8A4E9EF02F0EBEF02F0FFEF02F0040E1F
:1005D80025182610D8A4F3EF02F0F5EF02F0FFEF8C
:1005E80002F0290E2124D96E000E2220DA6E710E37
:1005F800DF6E32EF05F0020E27182810D8A407EF97
:1006080003F009EF03F01DEF03F0030E2518261081
:10061800D8A411EF03F013EF03F01DEF03F0290E38
:100628002124D96E000E2220DA6E720EDF6E32EFB0
:1006380005F027502810D8A424EF03F026EF03F084
:100648003AEF03F0030E25182610D8A42EEF03F076
:1006580030EF03F03AEF03F0290E2124D96E000E93
:100668002220DA6E730EDF6E32EF05F027042810B1
:10067800D8A441EF03F043EF03F056EF03F025044D
:100688002610D8A44AEF03F04CEF03F056EF03F01E
:10069800290E2124D96E000E2220DA6E740EDF6E28
:1006A80032EF05F027042810D8A45DEF03F05FEFC0
:1006B80003F073EF03F0030E25182610D8A467EF94
:1006C80003F069EF03F073EF03F0290E2124D96ECC
:1006D800000E2220DA6E750EDF6E32EF05F0270469
:1006E8002810D8A47AEF03F07CEF03F090EF03F022
:1006F800040E25182610D8A484EF03F086EF03F023
:1007080090EF03F0290E2124D96E000E2220DA6E14
:10071800760EDF6E32EF05F0030E27182810D8A4E6
:1007280098EF03F09AEF03F0AEEF03F0030E2518ED
:100738002610D8A4A2EF03F0A4EF03F0AEEF03F065
:10074800290E2124D96E000E2220DA6E770EDF6E74
:1007580032EF05F0090E27182810D8A4B6EF03F0D9
:10076800B8EF03F0CCEF03F0040E25182610D8A438
:10077800C0EF03F0C2EF03F0CCEF03F0290E212401
:10078800D96E000E2220DA6E780EDF6E32EF05F099
:100798000B0E27182810D8A4D4EF03F0D6EF03F0D7
:1007A800EAEF03F0040E25182610D8A4DEEF03F0B4
:1007B800E0EF03F0EAEF03F0290E2124D96E000ED2
:1007C8002220DA6E790EDF6E32EF05F00C0E271854
:1007D8002810D8A4F2EF03F0F4EF03F008EF04F0C8
:1007E800040E25182610D8A4FCEF03F0FEEF03F042
:1007F80008EF04F0290E2124D96E000E2220DA6EAB
:100808007A0EDF6E32EF05F00F0E27182810D8A4E5
:1008180010EF04F012EF04F026EF04F0050E25188F
:100828002610D8A41AEF04F01CEF04F026EF04F009
:10083800290E2124D96E000E2220DA6E310EDF6EC9
:1008480032EF05F0070E27182810D8A42EEF04F071
:1008580030EF04F044EF04F0050E25182610D8A454
:1008680038EF04F03AEF04F044EF04F0290E2124A5
:10087800D96E000E2220DA6E320EDF6E32EF05F0EE
:10088800030E27182810D8A44CEF04F04EEF04F0FC
:1008980062EF04F0050E25182610D8A456EF04F0D0
:1008A80058EF04F062EF04F0290E2124D96E000EEF
:1008B8002220DA6E330EDF6E32EF05F0270428109F
:1008C800D8A469EF04F06BEF04F07FEF04F0050E95
:1008D80025182610D8A473EF04F075EF04F07FEF05
:1008E80004F0290E2124D96E000E2220DA6E340E6F
:1008F800DF6E32EF05F027502810D8A486EF04F0F9
:1009080088EF04F09CEF04F0050E25182610D8A4F3
:1009180090EF04F092EF04F09CEF04F0290E2124EC
:10092800D96E000E2220DA6E300EDF6E32EF05F03F
:10093800100E27182810D8A4A4EF04F0A6EF04F08E
:10094800BAEF04F0050E25182610D8A4AEEF04F06F
:10095800B0EF04F0BAEF04F0290E2124D96E000E8E
:100968002220DA6E360EDF6E32EF05F0180E2718E9
:100978002810D8A4C2EF04F0C4EF04F0D8EF04F0B4
:10098800050E25182610D8A4CCEF04F0CEEF04F0FD
:10099800D8EF04F0290E2124D96E000E2220DA6E39
:1009A800370EDF6E32EF05F01C0E27182810D8A47A
:1009B800E0EF04F0E2EF04F0F6EF04F0050E25187E
:1009C8002610D8A4EAEF04F0ECEF04F0F6EF04F0F8
:1009D800290E2124D96E000E2220DA6E380EDF6E21
:1009E80032EF05F01E0E27182810D8A4FEEF04F0E9
:1009F80000EF05F014EF05F0050E25182610D8A411
:100A080008EF05F00AEF05F014EF05F0290E212490
:100A1800D96E000E2220DA6E390EDF6E32EF05F045
:100A28001F0E27182810D8A41CEF05F01EEF05F09C
:100A38002AEF05F0050E25182610D8A426EF05F094
:100A480028EF05F02AEF05F092EF04F0290E212493
:100A5800D96E000E2220DA6E450EDF6E214A222A58
:100A68001200F7EC05F0000E246E010E236E1F0431
:100A78002010D8A442EF05F044EF05F03BEF05F055
:100A8800000E1C6E010E1B6E1F042010D8B44FEF11
:100A980005F051EF05F053EF05F06BEF05F0BE2AB6
:100AA8000D0E196EFC0EE82EFED7192EFCD71B4A28
:100AB8001C2A1CBE69EF05F01C5009E1320E1B5CB4
:100AC800D8A069EF05F06BEF05F048EF05F0020ECE
:100AD8001A6E040E196EBA0EE82EFED7192EFCD720
:100AE8001A2EFAD700D0000E1E6E010E1D6E1F04BE
:100AF8002010D8B482EF05F084EF05F086EF05F0FA
:100B08009EEF05F0BE060D0E196EFC0EE82EFED700
:100B1800192EFCD71D4A1E2A1EBE9CEF05F01E503A
:100B280009E1320E1D5CD8A09CEF05F09EEF05F0A0
:100B38007BEF05F0020E1A6E040E196EBA0EE82E3F
:100B4800FED7192EFCD71A2EFAD700D03BEF05F0A6
:100B580004EF01F00600000EBE6E000E206E000EBF
:100B68001F6E000E246E000E236E030E026E080E1A
:100B7800016E770EE82EFED7012EFCD7022EFAD78B
:100B880000F081A0CAEF05F0CCEF05F0DBEF05F02F
:100B9800010E27C001F028C002F0D89001360236B5
:100BA8000110276E0250286E898CE1EF05F0D8906D
:100BB8002734276E2834286E898C010E2524256E4B
:100BC800000E2620266E030E026E080E016E770EAA
:100BD800E82EFED7012EFCD7022EFAD700F0899C0A
:100BE800F29239921100000E816E000E8A6E938087
:100BF8009382000E926E000E896E0F0EC16EF80E73
:100C0800D56E000ED66ED08EF28EF28CF288F086FB
:100C1800F292F090F09C14EC06F096EC06F01200BC
:100C2800000E946E000E956E000E156E190E146E61
:100C38006AEC06F0380EA6EC06F0060EA6EC06F0F6
:100C48000C0EA6EC06F0010EA6EC06F0030E156ECF
:100C5800E80E146E6AEC06F01200000E946E000E98
:100C6800956E000E046E190E036E80EC06F0380EB9
:100C7800B3EC06F0060EB3EC06F00C0EB3EC06F07F
:100C8800010EB3EC06F0030E046EE80E036E80EC62
:100C980006F012000A6E0A50B3EC06F05DEF06F09B
:100CA80008C0D9FF09C0DAFFDF50C0EC06F0084AD7
:100CB800092A08C0D9FF09C0DAFFDF50D8A467EFB6
:100CC80006F069EF06F054EF06F0120015341530FF
:100CD800166E1430146E16C015F076EF06F0140672
:100CE800D8A0150614041510D8A47DEF06F07FEFE0
:100CF80006F073EF06F0120004340430056E03307A
:100D0800036E05C004F08CEF06F00306D8A00406B5
:100D180003040410D8A493EF06F095EF06F089EFCA
:100D280006F01200000E946E8B947D0ECA6EBD50B4
:100D3800F00B0C09BD6E320ECB6E000EBE6ECF0EE0
:100D4800BD161200186E18C083FF82908282000EB2
:100D5800156E190E146E6AEC06F082921200076E78
:100D680007C083FF82908282000E046E190E036E04
:100D780080EC06F082921200076E07C083FF828023
:100D88008282000E046E190E036E80EC06F08292C9
:100D9800120000EE1FF01A0EEE6AE806FDE1399027
:080DA8003992000135EF05F05E
:020000040020DA
:08000000FFFFFFFFFFFFFFFF00
:020000040030CA
:0E000000FF081F1EFF8181FF0FC00FE00F40A1
:00000001FF
